:1000000001C0D2C01124809140008093400083FF42
:1000100004C0282E80E0B0D0F3C0A895249A2C9A72
:1000200080E48093E205809182128370813029F50B
:100030008CE590E0809368089093690881E0809354
:100040006B0883E0809367081092650880EC8093CA
:10005000660888E091D0079A87E0815089F4A895D6
:100060000DE983E0D82E7CD08134F1F479D0182FBB
:100070008CD0123889F480E013C083E790E0DACFA7
:10008000179A2EEC36E5A8959091640897FDE8CF75
:1000900021503109C1F7E1CF89E0113809F083E03F
:1000A00058D080E156D0DFCF823419F484E175D086
:1000B000F8CF853411F485E0FACF853531F450D08E
:1000C000C82F4ED0D82F61D0ECCF863519F484E0FC
:1000D00064D0D1CF8436B9F443D042D0182F40D069
:1000E000863479F4D05C3CD0888321961150D9F7BE
:1000F0004CD004BFD0920010809102108370E1F7C1
:10010000D0CFDC5EF0CF843791F42AD029D0182FDD
:1001100027D0F82E3AD086E4F81207C0D05C888148
:10012000219617D01150D9F7BCCFDC5EF8CF8537B8
:1001300051F42BD0809100110CD08091011109D085
:1001400080910211ADCF813509F0BDCF81E014D08F
:10015000BACF9091640895FFFCCF80936208089510
:100160008091640887FFFCCF9091610880916008BE
:1001700092FD01C0A89508959091010190FDFCCFDA
:1001800098ED94BF809300010895EADF803219F062
:1001900081E0F2DFFFCF84E1DCCFCF93C82FE0DF37
:1001A000C150E9F7CF91F1CF88ED84BF6093000192
:1001B000809102108370E1F70895FFFFFFFFFFFFBA
:1001C000FFFFFFFFFFFFFFFFFFFFFFFFFFFFFFFF3F
:1001D000FFFFFFFFFFFFFFFFFFFFFFFFFFFFFFFF2F
:1001E000FFFFFFFFFFFFFFFFFFFFFFFFFFFFFFFF1F
:1001F000FFFFFFFFFFFFFFFFFFFFFFFFFFFF000904
:100200000C9450010C9462010C9462010C946201F4
:100210000C9462010C9462010C9462010C946201D2
:100220000C9462010C9462010C9462010C946201C2
:100230000C9462010C9462010C9462010C946201B2
:100240000C9462010C9462010C9462010C946201A2
:100250000C9462010C9462010C9462010C94620192
:100260000C9462010C9464010C9462010C94620180
:100270000C9462010C9462010C9462010C94620172
:100280000C9462010C9462010C9462010C94620162
:100290000C9462010C9462010C9462010C94620152
:1002A00011241FBECFEFCDBFDFE3DEBF28E2A0E009
:1002B000B8E201C01D92A430B207E1F70E948C01A0
:1002C0000C94EC010C9400011F920F920FB60F9248
:1002D00011248F939F93AF93BF93809100289091A7
:1002E0000128A0910228B09103280196A11DB11DFB
:1002F0008093002890930128A0930228B0930328AC
:1003000081E08093A60ABF91AF919F918F910F904A
:100310000FBE0F901F90189588ED90E084BF9093CA
:10032000610080910206866080930206809100063B
:10033000816080930006809102068F7C80658093A7
:1003400002061092E20582E08093E40581E080934A
:10035000030A8EEF8093270A8093260A80E8809311
:100360002D0A80932B0A8093290A80932C0A80936C
:100370002A0A8093280A8BE08093000A87E0809302
:10038000E505E0E8FAE037E02EEF90E885E031831C
:100390002487958780837096E03C4AE0F407B9F79C
:1003A0001092A10A8FE79EE38093AC0A9093AD0A66
:1003B0008091A50A81608093A50A1092A00A80917D
:1003C000A00A81608093A00A7894C0E0D0E02097D2
:1003D000F1F30E940000FBCFF894FFCFFFFFFFFF77
:1003E000FFFFFFFFFFFFFFFFFFFFFFFFFFFFFFFF1D
:1003F000FFFFFFFFFFFFFFFFFFFFFFFFFFFFFFFF0D
:1004000001C01D92A337B207E1F718E2A0E0B8E2FD
:10041000E7E1FBE802C005900D92A031B107D9F7E2
:1004200011E0C6EFD1E004C02197FE010E947641A1
:10043000C53FD107C9F70E94892F0C94EC430C9457
:10044000000100008093C4088091C30887FFFCCF9F
:100450008091C4080895AF92BF92CF92DF92EF923D
:10046000FF920F931F93CF93DF936C017B018B015E
:10047000040F151FEB015E01AE18BF08C017D107AE
:1004800059F06991D601ED91FC910190F081E02D38
:10049000C6010995892B79F7C501DF91CF911F918D
:1004A0000F91FF90EF90DF90CF90BF90AF900895A5
:1004B000FC01A485B58511968C91119781FD0FC023
:1004C0009C9186898F5F8F732789281749F0A689A9
:1004D000AE0FBF2FB11D5D969C93868B08958C91B6
:1004E0000895FC01508D418D252F30E0842F90E040
:1004F000821B930B541710F0CF960895019708951F
:10050000FC0196898789981761F0A789AE0FBF2FE4
:10051000B11D5D968C9197899F5F9F73978B90E03B
:1005200008958FEF9FEF0895FC01968987899817AA
:1005300031F08789E80FF11D858D90E008958FEFE8
:100540009FEF0895FC0196892789892F90E0805CB0
:100550009F4F821B91098F73992708958AEE9BE222
:100560000E94A20221E0892B09F420E0822F089545
:1005700087E89CE20E94A20221E0892B09F420E096
:10058000822F089584E29DE20E94A20221E0892B3D
:1005900009F420E0822F0895CF93DF93EC01E881E6
:1005A000F9810680F781E02D0995EC85FD8586812E
:1005B0008F738683EC85FD8585818F7585838F8913
:1005C0008E8B1D8ADF91CF910895FC01613019F463
:1005D000648B81E00895148A6623D9F380E008953E
:1005E000DC0154961C92549754968C915497823007
:1005F000A0F4282F30E0F901EE0FFF1FE20FF31FE8
:10060000EA0FFB1F9785961303C09685941749F050
:100610008F5F54968C935497E7CF54961C9280E04A
:10062000089581E00895CF93DF93FC01908D818D33
:10063000C485D585981306C08D818F7D8D83DF910C
:10064000CF910895A18DAE0FBF2FB11DA35ABF4FFB
:100650002C91818D90E001968F739927818F80E492
:100660008C83A485B58512962C93908D818D9813DB
:10067000E6CFA485B58515968C9115978F7D159637
:100680008C93838D8823D9F2848D80931301138EEC
:10069000D6CFDC011C96ED91FC910FB607FE03C08E
:1006A000258125FD04C0248125FD0C9413030895A4
:1006B000EF92FF920F931F93CF93DF93EC0181E0B2
:1006C0008D8B988D898D98131CC0AC85BD85149633
:1006D0008C91149785FF15C012966C93AC85BD85DF
:1006E00080E414968C93EC85FD8585818F7D8583D0
:1006F00081E090E0DF91CF911F910F91FF90EF90FB
:1007000008958091110180FF08C0809113018C8FA2
:100710008A8D8093130181E08B8FF62E088D10E077
:100720000F5F1F4F0F731127E02E898D8E1104C0AC
:10073000CE010E944903F9CFE88DEC0FFD2FF11D8A
:10074000E35AFF4FF082088FEC85FD85858180623A
:10075000CECFCF93DF93FC0125892223C9F0EC0192
:100760008091110180FF08C080911301848F828DD8
:100770008093130181E0838FEC85FD85858185FD64
:1007800003C0848186FD04C0CE010E944903F4CFDA
:10079000DF91CF91089580E090E0892B29F00E94AD
:1007A000C20281110E94000080E090E0892B29F0B4
:1007B0000E94B80281110E94000080E090E0892B25
:1007C00049F080E090E0892B29F00E94000081111F
:1007D0000E94000080E090E0892B29F00E94AE0288
:1007E00081110C940000089581E00895CF93DF9368
:1007F00090E0FC01EB55F74320812F3F69F0FC01AD
:10080000E253F743A08130E2A39FD0011124BC5FE3
:10081000613029F411962C93DF91CF910895805A7D
:100820009743EC01E881EF3F81F0CD014096E80F5E
:10083000F92FF11D9FB7F89412962C9380816230A6
:1008400039F4886080839FBFE7CFF0E0E0E0F2CF2B
:10085000877FF8CF893210F40C94F60308958F92B5
:100860009F92AF92BF92EF92FF920F931F93CF93FD
:10087000DF9304EF1FEF6115710509F4AEC04B0162
:10088000EC0188819981DC01ED91FC910284F38572
:10089000E02D40E050E0BA0109958C01892B09F068
:1008A0009CC08A818F3F09F498C0C82FD0E0209166
:1008B000082830910928C217D30739F061E00E9457
:1008C0002A04C0930828D093092880910828909181
:1008D0000928D0E0C0E0893291054CF4FC01E253D4
:1008E000F743C081B0E2CB9FE0011124DC5F279683
:1008F000FF24FA948932910524F48B559743FC0127
:10090000F080B12CA12C60E079E08DE390E0A501AE
:1009100094010E9457412150310941095109E12CAC
:1009200021153105F1E04F0751057CF18091000A56
:1009300090E0959587958770853008F05AC091E0D2
:10094000E92E01C0EE0C8A95EAF760E072E18AE7D1
:1009500090E0A50194010E9457418E2C912CB12C5E
:10096000A12CCA01B901A50194010E94574121504F
:100970003109410951092115310581E04807510527
:1009800024F02FEF3FEF40E050E09FB7F89484E071
:10099000E11001C082E08093900A1092910A2093A6
:1009A0009C0A30939D0A81E08093950AC093E82BBE
:1009B000D093E92BF092E72B4FEF5FEFBA01409312
:1009C000E32B5093E42B6093E52B7093E62B8091FF
:1009D000900A81608093900A9FBFC801DF91CF91F8
:1009E0001F910F91FF90EF90BF90AF909F908F90CD
:1009F000089580E4E82EA9CF10925A29109259291F
:100A00001092602B1092E22B80915E2B90915F2BC5
:100A1000892B19F58091E305807301F562E082E08E
:100A20000E94F60362E083E00E94F60381E090E01A
:100A300080935E2B90935F2B109258291092572928
:100A400010925D2B1092562981EC8093A30883E4C9
:100A50008093A60881E08093A50808958091E3051E
:100A60008073803219F762E080E10E94F60362E051
:100A700081E1DACF90E0FC01E95CF743E081EE230D
:100A800019F1E13021F000F1E630A8F00895805A24
:100A90009743FC012081233008F02F5F3091010A39
:100AA00081E090E001C0880F2A95EAF780958323C2
:100AB0008093010A089580E1E89FF0011124E05A33
:100AC000F54F81818F7E818308950F931F93CF937C
:100AD000DF93C82FD0E0FE01EB55F74300810F3FB5
:100AE000A1F0162F893210F40E943A05FE01E2535C
:100AF000F743E08180E2E89FF0011124FC5F8081F0
:100B0000802351F0111106C00683DF91CF911F9110
:100B10000F9108950583F9CFC05AD7438881309744
:100B200071F08F3F61F07096E80FF11D9FB7F89458
:100B30008081111107C0877F80839FBFE6CFF0E0DF
:100B4000E0E0F4CF8860F8CF893210F40C946505AA
:100B50000895AF92BF92CF92DF92EF92FF920F93E0
:100B60001F93CF93DF93EC016A017B01A22E8D8945
:100B7000882339F0E881F9810688F789E02DCE01D4
:100B800009950C8910E0BFB6F89460E070E281EA44
:100B900097E0A70196010E94354169017A018FEF24
:100BA000C81AD80AE80AF80AF694E794D794C794C2
:100BB000EC85FD8586818D7F8683EC85FD8586812C
:100BC00086831D8AA09123110A2E000CBB0BA7015E
:100BD00096010E947C4120E034E040E050E00E9419
:100BE0005741EC85FD85C20ED31EE41EF51EC0865E
:100BF000D186EC85FD85A782EC85FD858681806C9C
:100C00008683EC85FD858581806885839091E205EA
:100C10008B89809589239801220F331F020F131FA0
:100C2000C00FD11F9889892B8093E20562E08E85E1
:100C30000E942A0461E08F850E94A40561E08F85EF
:100C40000E942A04BFBEDF91CF911F910F91FF90A8
:100C5000EF90DF90CF90BF90AF9008958FB7F8944A
:100C6000209106293091072940910829509109299E
:100C7000E091AA0AF091AB0A9091A60A90FF08C0F1
:100C80002F5F3F4F4F4F5F4FE091AA0AF091AB0AA1
:100C90008FBFA8EEB3E00E947F3F24E0F695E79572
:100CA0002A95E1F76E0F7F1F811D911D08958F9288
:100CB0009F92AF92BF92CF92DF92EF92FF920F93EB
:100CC0001F930E942E066B017C0120911A2F3091F8
:100CD0001B2F21153105A9F16091212F7091222F31
:100CE0008091232F9091242F8090292F90902A2F4C
:100CF000A0902B2FB0902C2F680D791D8A1D9B1D65
:100D0000C9010E942F040E942E066C197D098E09CC
:100D10009F0900912D2F10912E2F20912F2F309170
:100D2000302F601771078207930768F31F910F91A7
:100D3000FF90EF90DF90CF90BF90AF909F908F90FB
:100D400008958091182F9091192F40911D2F509147
:100D50001E2F60911F2F7091202F0091252F109131
:100D6000262F2091272F3091282F400F511F621FCF
:100D7000731FDC01ED91FC910284F385E02D099550
:100D8000C2CFCF92DF92EF92FF920F931F930E94F8
:100D90002E066B017C0180911A2F90911B2F0097DA
:100DA00001F16091212F7091222F0E942F040E9447
:100DB0002E066C197D098E099F0900912D2F109127
:100DC0002E2F20912F2F3091302F6017710782071F
:100DD000930768F31F910F91FF90EF90DF90CF90F2
:100DE00008958091182F9091192F40911D2F5091A7
:100DF0001E2F60911F2F7091202FDC01ED91FC912F
:100E00000284F385E02D0995D2CF4F925F926F92C5
:100E10007F928F929F92AF92BF92CF92DF92EF928A
:100E2000FF920F931F93CF93DF936B01EC012C0183
:100E3000460E571E66246394712C88248A94912C44
:100E40004C165D0609F45AC0E9900E94C1068091D3
:100E5000312F8150990B530102C0AA0CBB1C8A95FB
:100E6000E2F701E010E0F12CA016B10668F0C7012E
:100E700080239123892B29F00E945706000F111F10
:100E8000F3CF0E94C106FACF10E08091322F1817DD
:100E900020F40E9457061F5FF8CF00911A2F10917F
:100EA0001B2F8091182F9091192F01151105F1F02A
:100EB000D80112968C918F3FB1F020910828309183
:100EC00009288217130679F41092E32B1092E42B71
:100ED0001092E52B1092E62B60E00E94A405809210
:100EE000082890920928F80180819181DC01ED9118
:100EF000FC910280F381E02D0995A2CFC601DF911C
:100F0000CF911F910F91FF90EF90DF90CF90BF9006
:100F1000AF909F908F907F906F905F904F900895CB
:100F20008F929F92AF92BF92CF92DF92EF92FF92F9
:100F30004B015C010E942E066B017C01A8EEB3E020
:100F4000A50194010E947F3FC60ED71EE81EF91E20
:100F5000C616D706E806F90618F40E942E06F8CF42
:100F60000E942E066C157D058E059F05C8F3FF9027
:100F7000EF90DF90CF90BF90AF909F908F900895AB
:100F80002FB7F8946091062970910729809108295C
:100F9000909109292FBF0895EF92FF920F931F930D
:100FA000CF93DF9390E2899FE0011124DC5FE98415
:100FB000082F000F000F000FFF24F39410E08E2D78
:100FC0008F2179F0E02FE10FF0E0EE0FFF1FE855E1
:100FD000F74D80819181892B21F00190F081E02DE6
:100FE00009951F5FFF0C183051F7E986DF91CF910B
:100FF0001F910F91FF90EF9008958FEF0C942102B5
:101000000F931F93CF93DF93EC010E94C0078B01D6
:101010000E94FD078F3F69F00E94C007601B710BA3
:101020006C177D07A8F380E0DF91CF911F910F919E
:10103000089581E0F9CF0C942102FC01DB011296A6
:101040008D919C9113978283938389E199EC80839E
:10105000918314968C911497848315968C9115978F
:10106000858316964D915D916D917C91199746837C
:101070005783608771871A964D915D916D917C9130
:101080001D9742875387648775871E964D915D91A2
:101090006D917C91519746875787608B718B5296E3
:1010A0008C915297828B53964D915D916D917C916D
:1010B0005697438B548B658B768B57964D915D91EC
:1010C0006D917C915A97478B508F618F728F5B9691
:1010D0008D919C91838F948F08950895DC0159968A
:1010E000ED91FC913097B9F083899489A589B689EF
:1010F0004285538564857585841B950BA60BB70BBC
:10110000811520E89207A105B10538F08FEF9FE720
:10111000A0E0B0E0089590E080E00895DC015996E9
:101120008D919C91009739F0DC01ED91FC91048048
:10113000F581E02D099490E080E00895CF93DF934E
:101140001F92CDB7DEB76983DC01ED91FC9102807F
:10115000F381E02D41E050E0BE016F5F7F4F0995C4
:101160000F90DF91CF910895CF93DF93EC018A85A3
:101170009B85AC85BD858E839F83A887B9870E9498
:10118000C0076A837B838C839D8381E08983888306
:10119000DF91CF910895CF93DF93EC018E819F81F2
:1011A000A885B9858A839B83AC83BD830E94C007D1
:1011B0006A877B878C879D8781E089838883DF911D
:1011C000CF9108954AE953E030E020E0082E000C6A
:1011D000990BFA0164916817190621F4C901806E10
:1011E000936008953196E491E817190621F4C90136
:1011F0008066936008952F5F3F4F4E5F5F4F2032B0
:10120000310539F790E080E008950F931F93CF9355
:101210008932B8F4082F10E0F801EB55F743C0818C
:10122000CF3F79F00E943A05F801E253F743E0819D
:1012300080E2E89FF0011124FC5F8085C82381E0F3
:1012400009F480E0CF911F910F9108958F3F11F025
:101250000C94A40508951F93CF93DF93FC01258977
:10126000222361F0142FEC0186890E942609612F48
:101270008F89DF91CF911F910C942609DF91CF9137
:101280001F9108958F929F92AF92BF92CF92DF925B
:10129000EF92FF920F931F93CF93DF93FC01868110
:1012A000882319F081FF0EC07894DF91CF911F91B0
:1012B0000F91FF90EF90DF90CF90BF90AF909F90F5
:1012C0008F90089580FFF1CF80849184A284B384AD
:1012D000C12CD12C760110E09401A501B601C70103
:1012E000A0E00E94A14199F1217030E040E050E07F
:1012F00060E070E080E090E00E94A141D9F0D0E091
:10130000C0E0103370F4C12FC695C695C69580E233
:10131000C89FE0011124C05FDB4F812F8770C80F89
:10132000D11DCF01810F911DDC0150968C919881C8
:10133000892B88839401A501B601C70101E00E94B1
:10134000864149015A016B017C011F5FC5CF84842E
:101350009584A684B784C12CD12C760110E2940127
:10136000A501B601C701A0E00E94A14109F49DCFEB
:10137000217030E040E050E060E070E080E090E01C
:101380000E94A141D9F0D0E0C0E0103370F4C12F29
:10139000C695C695C695B0E2CB9FE0011124C05F0B
:1013A000DB4F812F8770C80FD11DCF01810F911D99
:1013B000DC0150968C919881892B88839401A5013A
:1013C000B601C70101E00E94864149015A016B0143
:1013D0007C011F5FC4CF61E0FC0184810E94A405F1
:1013E0008091A228882331F01092A2288AE19EE2FF
:1013F0000C94420908958F929F92AF92BF92CF9220
:10140000DF92EF92FF920F931F93CF93DF93FC0134
:10141000C62F172F8681882319F081FF12C0F894F8
:10142000C093C0081093C108DF91CF911F910F9115
:10143000FF90EF90DF90CF90BF90AF909F908F90F4
:10144000089580FFEDCF80849184A284B384C12C61
:10145000D12C7601D0E09401A501B601C701A0E02E
:101460000E94A141B1F1217030E040E050E060E025
:1014700070E080E090E00E94A141F1F090E080E017
:10148000D03370F48D2F86958695869520E2829FC5
:10149000C0011124805F9B4F2D2F2770820F911D5B
:1014A000DC014C919F012D0F311DD90150964C93B9
:1014B000DC012C91287F2C939401A501B601C70172
:1014C00001E00E94864149015A016B017C01DF5F06
:1014D000C2CF84849584A684B784C12CD12C760194
:1014E000D0E29401A501B601C701A0E00E94A1418C
:1014F00009F496CF217030E040E050E060E070E009
:1015000080E090E00E94A141F1F090E080E0D033D3
:1015100070F48D2F869586958695B0E28B9FC001DD
:101520001124805F9B4F2D2F2770820F911DDC01AE
:101530004C919F012D0F311DD90150964C93DC0128
:101540002C91287F2C939401A501B601C70101E0DD
:101550000E94864149015A016B017C01DF5FC1CFC6
:10156000CF93DF93EC018091A22881110BC081E021
:101570008093A2286091C12D7091C22D8AE19EE2D4
:101580000E94FB0960E08C81DF91CF910C94A4054F
:101590008F929F92AF92BF92FF920F931F93CF9320
:1015A000DF93EC01F62E49015A018E81882389F0E0
:1015B0008F8198859C012F5F3F4F2F833887823022
:1015C000924018F40E94FD07F3CFCE010E94EB0970
:1015D0001E82CE010E94B00A8CE291E00E940008B7
:1015E0008F2D80640E941B0808E110E0D501C40122
:1015F000002E04C0B695A795979587950A94D2F7C3
:101600000E941B0808501109083F8FEF180771F757
:1016100085E9FF2021F028E087E8F2128FEF0E9491
:101620001B0810E00E94FD078A8787FF04C01F3F48
:1016300011F01F5FF7CFDF91CF911F910F91FF90B6
:10164000BF90AF909F908F900895AF92BF92CF922E
:10165000DF92EF92FF920F931F93CF93DF93EC01F2
:101660006901C801820F931F8130924050F58E812D
:10167000882379F088819981AA81BB818417950795
:10168000A607B70731F48F819885C816D90608F0E8
:1016900042C0488359836A837B838B85833039F0CA
:1016A00089E0440F551F661F771F8A95D1F79A016D
:1016B000AB0161E1CE010E94C80A882389F083E072
:1016C0008D83CE010E94EB0980E0DF91CF911F91C5
:1016D0000F91FF90EF90DF90CF90BF90AF90089563
:1016E0000E94C0075B010E94FD078A878F3F69F453
:1016F0000E94C0076A197B096D327140A0F38FE028
:101700008D83CE010E94EB09DCCF8E3F89F41F82CE
:10171000188681E08E838F8198858C159D0550F405
:101720000E94FD078F81988501968F839887F3CF5C
:101730008DE0E6CF6701E00EF11E0E94FD07F60185
:1017400081936F01EE15FF05C1F78F819885080F12
:10175000191F0F8318878985882319F001151240F6
:10176000A0F08E81882389F08F8198859C012F5F5E
:101770003F4F2F8338878230924018F40E94FD0734
:10178000F3CFCE010E94EB091E8281E09ECFCF9263
:10179000DF92EF92FF920F93CF93DF93EC016901F9
:1017A00082E1411551056105710599F08B85833002
:1017B00039F089E0440F551F661F771F8A95D1F7CE
:1017C0009A01AB0168E1CE010E94C80A882319F092
:1017D00084E08D832DC08EEF0E941B0876018EEF72
:1017E000D81AF70181917F010E941B08EC14FD04B7
:1017F000C1F78FEF0E941B088FEF0E941B080E9409
:10180000FD078A878F71853071F4011116C0CE01F2
:101810000E94EB0981E0DF91CF910F91FF90EF9053
:10182000DF90CF90089581E18D83CE010E94EB0976
:10183000CE010E94EB0980E0EECF88E592E00E94A5
:101840000008811102C085E1C4CF20E030E0A90189
:101850006DE0CE010E94C80A882311F084E1B9CF5F
:101860000E94FD078111FACFD2CF0F934091A42897
:101870005091A5286091A6287091A728411551057F
:101880006105710599F0082F2BE539E280915B2BFA
:1018900090915C2B0E94C70B882349F01092A428DA
:1018A0001092A5281092A6281092A72881E00F91E7
:1018B00008950F93CF93C82F8091A328811105C05D
:1018C000C1E08C2FCF910F91089540910428509141
:1018D000052860910628709107280C2F2BE539E226
:1018E00080915B2B90915C2B0E94C70B811102C0F1
:1018F000C0E0E7CFCC2321F381E00E94350C8823A0
:10190000B9F31092A328DDCF8F929F92AF92BF922E
:10191000EF92FF920F931F93CF934B015C01C42F63
:101920008091042890910528A0910628B09107285D
:1019300088159905AA05BB0551F181E00E94590C53
:1019400081110BC080E0CF911F910F91FF90EF901C
:10195000BF90AF909F908F9008958BE5E82E89E21D
:10196000F82E00E012E030E020E0B501A401809103
:101970005B2B90915C2B0E94250B882319F380929E
:10198000042890920528A0920628B092072840913A
:10199000A3284C2B4093A32881E0D5CF4F925F9290
:1019A0006F927F928F929F92AF92BF92CF92DF926F
:1019B000EF92FF920F931F93CF93DF93EC0142308E
:1019C00051056105710590F480E0DF91CF911F9181
:1019D0000F91FF90EF90DF90CF90BF90AF909F90CE
:1019E0008F907F906F905F904F90089589859A8532
:1019F000AB85BC850196A11DB11D84179507A6076F
:101A0000B70710F3CB88DC88ED88FE888F8980319A
:101A100009F042C0BB27A72F962F852F48015901F7
:101A20002A013B01C80ED91EEA1EFB1E8091042824
:101A300090910528A0910628B0910728C816D906CC
:101A4000EA06FB0699F58F898031C1F5B301A20141
:101A5000552766277727440F551F455A564DFA01DB
:101A6000808291828091A32881608093A3288A89B3
:101A7000823080F08D819E81AF81B8858C0D9D1D57
:101A8000AE1DBF1D8093A4289093A528A093A628DF
:101A9000B093A72881E099CFDB01CA01E7E0B695B2
:101AA000A79597958795EA95D1F7B8CF40E0C701FC
:101AB000B6010E94840C8111C6CF86CFB301A2016A
:101AC0004F77552766277727440F551F440F551F1B
:101AD000455A564DFA0180829182A282B382C2CFCA
:101AE0008F929F92AF92BF92CF92DF92EF92FF922E
:101AF0000F931F93CF93DF93FC0181859285A3857C
:101B0000B4850196A11DB11D84179507A607B707D7
:101B100070F480E0DF91CF911F910F91FF90EF90D3
:101B2000DF90CF90BF90AF909F908F900895838863
:101B30009488A588B6888789803189F5BB27A72F27
:101B4000962F852FE9016A017B018F01BC01CD0130
:101B5000680D791D8A1D9B1D809004289090052892
:101B6000A0900628B090072886169706A806B90602
:101B700001F5F8018789803111F5DD24EE24FF2479
:101B8000F601EE0FFF1FE55AF64D80819181B0E01E
:101B9000A0E088839983AA83BB8381E0BBCFDB016C
:101BA000CA01C7E0B695A79597958795CA95D1F7CD
:101BB000C9CF40E00E94840C8111DBCFAACFE8940A
:101BC000C7F8DD24EE24FF24F601EE0FFF1FEE0F11
:101BD000FF1FE55AF64D80819181A281B381BF70CC
:101BE000D8CF4F925F926F927F92AF92BF92CF9277
:101BF000DF92EF92FF920F931F93CF93DF9300D06A
:101C000000D0CDB7DEB78C0149835A836B837C83C8
:101C10005901C12CD12C7601412C82E0582E612C27
:101C2000712C49815A816B817C819E012F5F3F4FCE
:101C3000C8010E94700D882339F1F8018585A30140
:101C4000920104C0220F331F441F551F8A95D2F7FB
:101C5000DA01C901C80ED91EEA1EFB1E49815A814C
:101C60006B817C818789803109F188EF9FEFAFEF2D
:101C7000BFE0481759076A077B0798F2F501C08251
:101C8000D182E282F38281E02496CDBFDEBFDF9174
:101C9000CF911F910F91FF90EF90DF90CF90BF9069
:101CA000AF907F906F905F904F90089588EF9FEF77
:101CB000A0E0B0E0DECFCF93DF93FC0125812223AB
:101CC00021F080E0DF91CF910895EC018091E62D25
:101CD000803159F582E08583178A108E118E128E1D
:101CE0008091E72D9091E82DB0E0A0E025E0880FED
:101CF000991FAA1FBB1F2A95D1F7838B948BA58BA5
:101D0000B68B8FEC9DE28B8F9C8F81E08C831E8243
:101D10001F82188619861A861B861C861D861E86BB
:101D20001F86188A198A1A8ACDCF803251F683E02D
:101D300085834091E92D5091EA2D6091EB2D7091B2
:101D4000EC2D478B508F618F728F9F012D5E3F4F1F
:101D50008FEC9DE20E94F10D8111D3CFB2CF8F9213
:101D60009F92AF92BF92CF92DF92EF92FF920F932A
:101D70001F93CF93DF93EC018D8181110EC080E022
:101D8000DF91CF911F910F91FF90EF90DF90CF9057
:101D9000BF90AF909F908F9008950B891C892D89DB
:101DA0003E89041715072607370748F34A015B01E8
:101DB000823031F48A869B86AC86BD8681E0E0CF96
:101DC00081149104A104B10449F41E821F82188673
:101DD00019861A861B861C861D86F0CF0A851B85F0
:101DE0002C853D85EB8DFC8D858590E00996B901AC
:101DF000A8014150510961097109082E04C0769566
:101E00006795579547950A94D2F775016401E1E00B
:101E1000CE1AD108E108F10804C0F694E794D794EB
:101E2000C7948A95D2F7C416D506E606F70620F0C1
:101E3000012B022B032B11F58F89988DA98DBA8D5B
:101E40008E839F83A887B9878E010A5F1F4FC114B5
:101E5000D104E104F10409F4ADCF4E815F816885BE
:101E6000798598018B8D9C8D0E94700D91E0C91A27
:101E7000D108E108F1088111EACF81CFC41AD50A4F
:101E8000E60AF70AE1CF3F924F925F926F927F92FC
:101E90008F929F92AF92BF92CF92DF92EF92FF927A
:101EA0000F931F93CF93DF93CDB7DEB72C97CDBFA2
:101EB000DEBF5C01DC015B968D909C905C97169672
:101EC0004D905D906D907C90199741145104610480
:101ED000710409F468C0BFEF4B1A5B0A6B0A7B0AF6
:101EE000312CF40181859285A385B4859C01AD01D7
:101EF0002F5F3F4F4F4F5F4F29873A874B875C8754
:101F0000730162011D821E821F821886F401818581
:101F10009285A385B4852D813E814F8158852817F0
:101F200039074A075B0708F056C089859A85AB8553
:101F3000BC858C159D05AE05BF0550F482E0C82E0A
:101F4000D12CE12CF12C92E0492E512C612C712CDA
:101F50009E012F5F3F4FB701A601C4010E94700D83
:101F60008823C9F189819A81AB81BC81892B8A2B15
:101F70008B2B09F1260137019FEF491A590A690A8B
:101F8000790A2D813E814F8158852F5F3F4F4F4FFA
:101F90005F4F2D833E834F8358873FEFC31AD30A89
:101FA000E30AF30AB3CFF40140805180628073806A
:101FB0003324339496CFC414D504E604F70409F708
:101FC0000FEF1FEF2FEF3FE0B701A601C4010E9402
:101FD000CE0C811116C080E02C96CDBFDEBFDF9104
:101FE000CF911F910F91FF90EF90DF90CF90BF9016
:101FF000AF909F908F907F906F905F904F903F90A9
:102000000895D50116964D915D916D917C9119972A
:10201000411551056105710539F097018601C4012B
:102020000E94CE0C8823B9F2D5011696CD92DD928E
:10203000ED92FC921997332051F0D701C601019619
:10204000A11DB11DF40180839183A283B383F501A7
:102050008789908DA18DB28D892B8A2B8B2B39F49A
:102060008481C78AD08EE18EF28E80688483F501E8
:1020700084818062848381E0AFCF2F923F924F9220
:102080005F926F927F928F929F92AF92BF92CF9208
:10209000DF92EF92FF920F931F93CF93DF9300D0C5
:1020A0001F92CDB7DEB7FC018581811118C08FEF7B
:1020B0009FEF2396CDBFDEBFDF91CF911F910F9190
:1020C000FF90EF90DF90CF90BF90AF909F908F9058
:1020D0007F906F905F904F903F902F9008958481F4
:1020E00080FFE5CF43895489658976898285938508
:1020F000A485B585312C212C481759076A077B0721
:1021000019F022242394312C6F012101CE01019674
:102110003C01DF011696AA83BB834114510409F4E4
:10212000C5C0F60142855385648575854A01F1E095
:102130009F22D6015B968D919C915C978A019B01B1
:10214000E9E03695279517950795EA95D1F7159605
:10215000EC91E230E9F5FC01628D738D848D958DF3
:10216000600F711F821F931FA12C22E0B22EA818AE
:10217000B9084A145B0408F45201F601248126FDD3
:1021800004C0A114F2E0BF0671F40091042810917C
:1021900005282091062830910728061717072807D9
:1021A000390709F05EC040E00E94840C882309F4DE
:1021B0007ECFC401855A964DD3019C012A0D3B1D4B
:1021C000FC012E173F0709F46CC041914D93F9CFE4
:1021D000DC011496BC90BA94B0228114910479F475
:1021E000B1100DC0452B462B472B69F5F6018789A9
:1021F000908DA18DB28D86839783A087B187D601FC
:102200005B96ED91FC915C9716966D917D918D9109
:102210009C9119976250710981099109258504C023
:10222000660F771F881F991F2A95D2F70685178595
:1022300020893189600F711F821F931F6B0D711DE3
:10224000811D911D91CFD60116964D915D916D9195
:102250007C9119972A813B810E94700D8111CFCF0B
:1022600026CF730185019401AB01BC0180915B2BEA
:1022700090915C2B0E94250B882309F418CF6A0CDF
:102280007B1CF60182859385A485B5858A0D9B1DEF
:10229000A11DB11D82879387A487B5874A185B0863
:1022A0003CCF281B390B620E731EEBCF2A942328D8
:1022B00009F0FDCE898190E0FCCEFC01818D928DEC
:1022C000009711F00C943D108FEF9FEF08950F933E
:1022D0001F93CF93DF93EC01898D9A8D10E000E07E
:1022E000009799F00E943D108C010F3F100769F094
:1022F000898D9A8DFC014285538564857585415091
:102300005109610971090E94AF0EC801DF91CF9197
:102310001F910F9108951F93CF93DF93FC012581A7
:102320002223D1F1162FEC01848187FF2AC0668514
:1023300077858089918941E00E94840C882361F12E
:10234000EA8980E2E89FF0011124E55AF64D3097C2
:1023500019F18D81823040F48B899C89AD89BE89C9
:10236000848F958FA68FB78F8F89988D828F938F4B
:102370008F89988DA98DBA8DA48BB58B8C818F7721
:102380008C83111103C08C818F7E8C83812FDF9110
:10239000CF911F910C94590C80E0DF91CF911F9148
:1023A0000895FF920F931F93CF93DF93EC018D81DC
:1023B000813041F090E080E0DF91CF911F910F914B
:1023C000FF9008958C8181FFF5CF82FD1BC00091A5
:1023D0005B2B10915C2BC8010E94B00A0E94FD0784
:1023E000F82EC8010E94EB098FEFF812E3CF8C8121
:1023F00085FF1BC060E0CE010E948B118C818F7D18
:102400008C83D8CF4B895C896D897E898A859B8531
:10241000AC85BD8584179507A607B707C1F2CE0125
:102420000E94AF0E8111D3CFC5CF4091A428509107
:10243000A5286091A6287091A728452B462B472BED
:1024400021F080E00E94350CB5CF80618C832A8515
:102450003B85317080E092E0821B930BADCFCF9330
:10246000DF93EC0161E00E948B11882311F01D8243
:1024700081E0DF91CF910895FC01818D928D0097CD
:1024800019F061E00C948B1108952F923F924F92B6
:102490005F926F927F928F929F92AF92BF92CF92F4
:1024A000DF92EF92FF920F931F93CF93DF93CDB7FD
:1024B000DEB72597CDBFDEBF7C015B01342E5D8387
:1024C000DC0115968C911597813009F0CEC01496D9
:1024D0002C9021FECAC022FCB4C0C32CDD80229403
:1024E0007FE027222094B22DB1702B2ED7011A96AF
:1024F0004D915D916D917C911D97C114D10409F4AA
:1025000028C15B968D919C915C97FC0174807A94B4
:102510008A019B0169E036952795179507956A957D
:10252000D1F770228A011170711020C001151105B8
:10253000E9F416964D915D916D917C911997411535
:1025400051056105710509F099C057968D919D91CE
:102550000D90BC91A02D0097A105B10509F0B0C068
:10256000C7010E94430F882309F47FC080E092E0F6
:10257000801B910B46018C159D0508F44C01D70179
:102580005B964D915C915C9716968D919D910D9007
:10259000BC91A02D0297A109B109FA01258504C0BB
:1025A000880F991FAA1FBB1F2A95D2F7468557850A
:1025B00060897189840F951FA61FB71F9C01AD010B
:1025C000270D311D411D511D29013A01811432E0B1
:1025D000930609F07BC08091042890910528A09172
:1025E0000628B091072884159505A605B70559F466
:1025F0008FEF9FEFDC018093042890930528A09330
:102600000628B0930728022D9501B301A2018091FD
:102610005B2B90915C2B0E94C70B882331F19EEFBE
:10262000B91AC818D908F70182859385A485B5859C
:10263000880D991DA11DB11D82879387A487B58739
:1026400055CFF701438954896589768982859385B9
:10265000A485B585481759076A077B0709F43DCF5C
:10266000C7010E94AF0E811138CF81E090E0D70101
:1026700012968D939C93139780E007C09E012F5F65
:102680003F4F0E94700D811102C090E079C0898196
:102690009A81AB81BC81F701238D348DF9012789A3
:1026A00048EF5FEF60E070E0203121F048EF5FEF2E
:1026B0006FEF7FE084179507A607B70708F050CFA4
:1026C000F70186839783A087B18750CF0115110545
:1026D00099F5D7011A964D915D916D917C911D9759
:1026E00053968D919D910D90BC91A02D481759073F
:1026F0006A077B0708F181E00E94590C882309F4DE
:10270000B4CF409204285092052860920628709217
:1027100007288091A32881608093A328C801855A47
:10272000964DD5019C01280D391DFC012E173F0740
:1027300059F04D914193FACF41E0C301B2010E949B
:10274000840C8111EBCF91CF281B390BA20EB31E45
:1027500068CFF70183899489A589B689841795077D
:10276000A607B70738F48481438B548B658B768B2F
:1027700080688483F701848183FD18C0832D9D8147
:102780002596CDBFDEBFDF91CF911F910F91FF90B6
:10279000EF90DF90CF90BF90AF909F908F907F9001
:1027A0006F905F904F903F902F90089561E0C70128
:1027B0000E948B11882309F458CFE0CFCF93DF9389
:1027C0001F92CDB7DEB7698341E050E0BE016F5F75
:1027D0007F4F0E9445120F90DF91CF910895CF93C4
:1027E000DF93EC01E98DFA8D309749F481E090E0B8
:1027F0008A839B8390E080E0DF91CF9108951282DD
:102800001382898D9A8D0E944512E98DFA8D22815D
:102810003381232B59F7F0CFBF92CF92DF92EF9203
:10282000FF920F931F93CF93DF93EC01F62EB42EFC
:102830006901688979898B899C890E94FB0960E01C
:102840008B850E9426098B2D8F290E9421028A8563
:102850008F1111C0C114D10419F18601F12CC801E6
:102860008C199D098E159F05D8F4F80181918F016F
:102870000E942102F4CF89858F1112C00115110524
:1028800079F06801F12CC601801B910B8E159F0514
:1028900038F480E00E942102F60181936F01F3CFAA
:1028A00061E08B850E9426098B899C89DF91CF91FD
:1028B0001F910F91FF90EF90DF90CF90BF900C94FD
:1028C0004209EF920F931F93CF93DF931F92CDB7DF
:1028D000DEB74983EE24E39410E000E09E012F5F11
:1028E0003F4F462FFC0162850E940C140F90DF9130
:1028F000CF911F910F91EF900895CF93DF93EC014B
:102900004FEF67E2888599850E9461144FEF68E276
:1029100088859985DF91CF910C9461144F925F92D5
:102920006F927F928F929F92AF92BF92CF92DF92DF
:10293000EF92FF920F931F93CF93DF93CDB7DEB744
:102940002A97CDBFDEBF89879A872A01DC011A96B4
:102950008D919D910D90BC91A02D89839A83AB831D
:10296000BC83A985BA85ED91FC9111970680F7810A
:10297000E02DCD0109958C01892B09F05DC00E94E5
:102980002E064B015C0183E0440C551C8A95E1F74F
:10299000712C612CA985BA851896ED91FC918485DE
:1029A0000E94050981115DC00E942E069B01AC01A9
:1029B000281939094A095B092D833E834F835887BB
:1029C000C301B2010E94603E6B017C0120E030E057
:1029D0004AE754E469817A818B819C810E94C13EDF
:1029E0009B01AC01C701B6010E94374020E836E9DF
:1029F00048E95AE40E94C13E0E94A940605C744BC1
:102A0000834B9F4F2D813E814F81588562177307FD
:102A10008407950708F0BECFA985BA85ED91FC9192
:102A200011970280F381E02DCD01099589859A8562
:102A30000E947D140BEF1FEFC8012A96CDBFDEBFA9
:102A4000DF91CF911F910F91FF90EF90DF90CF908A
:102A5000BF90AF909F908F907F906F905F904F90BE
:102A60000895A985BA85ED91FC9111970280F381B3
:102A7000E02DCD01099589859A850E947D14DCCFD2
:102A8000EF920F931F93CF93DF931F92CDB7DEB7D3
:102A9000462F1982EE24E3948E010F5F1F4F30E022
:102AA00020E0FC0161850E940C1489810F90DF9168
:102AB000CF911F910F91EF900895CF93DF93EC0189
:102AC0008F89811110C0662371F088859985288DC2
:102AD00060E0203809F068E30E94401590E08D8B9B
:102AE0009E8B81E08F8B8D899E89DF91CF91089598
:102AF000CF92DF92EF92FF920F931F93CF93DF93CA
:102B0000EC018B017A01E881F9810280F381E02DEB
:102B100009956C01892B49F580E4E816F10449F424
:102B2000E881F9810488F589E02D61E0CE010995FD
:102B30007C0167E3888599850E9440158670823004
:102B400011F0843029F460E0888599850E94401551
:102B50008885998530E020E040E0FC0161850E9495
:102B60000C141F8ACE010E947D14C601DF91CF9103
:102B70001F910F91FF90EF90DF90CF9008954F92AB
:102B80005F926F927F928F929F92AF92BF92CF92FD
:102B9000DF92EF920F931F93CF93DF93201708F4E8
:102BA00057C0D22FB42E162F6C010E94401521E081
:102BB0002D0F6FEF70E0AB0102C0440F551F2A9537
:102BC000E2F79A0148E050E0401B510902C07595B8
:102BD00067954A95E2F7262BC22FC0952823CB2173
:102BE000C22B4C2F612FC6010E9461140E942E0639
:102BF0002B013C0188EE93E0E89E4001E99E900C99
:102C00001124092C000CAA08BB080E942E06641986
:102C1000750986099709681579058A059B05D8F411
:102C2000612FC6010E944015C813EFCF90E080E0ED
:102C3000DF91CF911F910F91EF90DF90CF90BF90D8
:102C4000AF909F908F907F906F905F904F9008957E
:102C500085EF9FEFEDCF80EF9FEFEACFEF920F93DD
:102C6000462F22E0E22E02E024E061E0FC018085B4
:102C700091850E94BF150F91EF900895CF92DF923A
:102C8000EF92FF921F93CF93DF937C0160E10E944C
:102C90002E166AE070E080E090E00E949007D0E09D
:102CA000C0E010E064E2F701808591850E94401544
:102CB00080FBCC24C0F8D12CC6010C2E01C0880F9B
:102CC0000A94EAF7182B2196C830D10559F764E029
:102CD000C7010E942E16812FDF91CF911F91FF9087
:102CE000EF90DF90CF900895CF93DF93EC0140E019
:102CF00060E0888599850E942B0964E0CE01DF9110
:102D0000CF910C942E16EF920F931F93CF93DF93D6
:102D1000EC01162FE881F9810280F381E02D0995FD
:102D2000009791F41130B1F028F01230C9F089EE1B
:102D30009FEF0AC022E0E22E05E026E040E067E3D4
:102D4000888599850E94BF15DF91CF911F910F91C2
:102D5000EF90089592E0E92E05E026E040E2EFCF03
:102D600082E0E82E05E026E040E4E9CFEF920F9301
:102D70001F93CF93DF93EC01162FE881F981028036
:102D8000F381E02D09950097A1F41130C1F038F0DE
:102D90001230D9F01430F9F086E99FEF0AC032E022
:102DA000E32E00E021E040E062E0888599850E9402
:102DB000BF15DF91CF911F910F91EF90089522E001
:102DC000E22E00E021E043E0EFCF92E0E92E00E0C8
:102DD00021E042E0E9CF82E0E82E00E021E041E09E
:102DE000E3CF8F929F92AF92BF92CF92DF92EF92FA
:102DF0000F93CF93DF936C014A015B0120E030E039
:102E0000A901CB01B4010E945B3E87FF08C02AE9FB
:102E1000822E29E9922E29E1A22E2FE3B22E20E064
:102E200030E040E05FE3F601628573858485958537
:102E30000E94C13EA50194010E94CB3F20E030E0FA
:102E40004AEF53E40E945B3E1816D4F164E0C601D9
:102E50000E942E1620E030E040E059E4C501B401A4
:102E60000E94C13E20E030E04AEF56E40E94374025
:102E70000E94A9404B015C0177276B2D5A2D492DEB
:102E800092E0E92E00E025E065E0F601808591857D
:102E90000E94BF15EC0127E0482D66E0F601808511
:102EA00091850E94BF158C2B9D2BDF91CF910F91A7
:102EB000EF90DF90CF90BF90AF909F908F9008954C
:102EC0008AE99FEFF2CFAF92BF92CF92DF92EF925B
:102ED0000F931F93CF93DF934134510508F083C0C4
:102EE000122F6A015B01EC0164E00E942E1600972C
:102EF00009F06FC092E0E92E06E027E040E065E2CD
:102F0000888599850E94BF15009709F062C0CE019F
:102F10000E947D144C2D60E0888599850E94611483
:102F2000888D803831F44C2D60E0888599850E9429
:102F3000611467E3888599850E9440158670823008
:102F400011F0843031F4412F60E0888599850E942A
:102F5000611488859985EC2C10E000E0950140E033
:102F6000FC0162850E940C148C8982319CF441E042
:102F700060E0888599850E942B096CE0CE01DF9185
:102F8000CF911F910F91EF90DF90CF90BF90AF90B6
:102F90000C942E1682E0E82E00E027E04FE063E17B
:102FA000888599850E94BF156C0127E04DE56AE58B
:102FB000888599850E94BF15C82AD92A27E04CE741
:102FC0006CE5888599850E94BF158C299D290097FD
:102FD00071F2DF91CF911F910F91EF90DF90CF9021
:102FE000BF90AF9008958CEF9FEFF3CFEF920F93C8
:102FF000CF93DF93EC0164E00E942E160097A1F4BA
:1030000082E0E82E02E025E040E065E288859985CF
:103010000E94BF15009741F405E026E040E462E01D
:10302000888599850E94BF15DF91CF910F91EF9010
:103030000895CF93DF93EC0140E061E088859985A6
:103040000E942B09CE010E94F617009731F460E12F
:10305000CE01DF91CF910C942E16DF91CF91089580
:10306000CF92DF92EF92FF92CF93DF93EC016A0150
:103070007B0141E060E0888599850E942B09C1149D
:10308000D104E104F10409F1A7016627772767E07D
:10309000888599850E94611477276F2D5E2D4D2DAF
:1030A00068E0888599850E9461144C2D69E08885C7
:1030B00099850E9461146CE0CE01DF91CF91FF9061
:1030C000EF90DF90CF900C942E16CE010E94F61751
:1030D000009789F3DF91CF91FF90EF90DF90CF9031
:1030E00008952F923F924F925F926F927F928F92AC
:1030F0009F92AF92BF92CF92DF92EF920F93CF93B6
:10310000DF93CDB7DEB72697CDBFDEBF6C016D83F1
:103110007E831A01DC011A968D909D90AD90BC9033
:103120001D9764E00E942E16009709F0B3C082E05C
:10313000E82E04E027E040E465E2F6018085918511
:103140000E94BF1589839A8300E027E04FEF6AE26F
:10315000D60118968D919C910E94BF15E981FA8144
:10316000E82BF92BE983FA8327E04FEF6BE2D601D6
:1031700018968D919C910E94BF15E981FA818E2B42
:103180009F2B009709F086C0C6010E947D1440E085
:1031900061E0D60118968D919C910E942B0927E041
:1031A0004AE163E1F601808591850E94BF1589831C
:1031B0009A8327E045E56AE5D60118968D919C91A2
:1031C0000E94BF15E981FA81E82BF92BE983FA8384
:1031D00027E040E76CE5D60118968D919C910E94FE
:1031E000BF15E981FA818E2B9F2B009709F052C001
:1031F00060E1C6010E942E16009709F04BC00E94A4
:103200002E0669837A838B839C83D6011896ED9171
:10321000FC9184850E940509811150C00E942E06F0
:103220002B013C0129813A814B815C81421A530A6E
:10323000640A750A20E030E04AE754E4C501B401AD
:103240000E94C13E9B01AC0160E070E080E89FE31A
:103250000E94374020E030E048EC56E40E94C13E36
:1032600020E034E244EF58E40E94CB3F0E94A940A2
:10327000641575058605970540F6D601ED91FC911C
:103280000280F381E02DC6010995C6010E947D14DC
:103290008AEF9FEF2696CDBFDEBFDF91CF910F91D2
:1032A000EF90DF90CF90BF90AF909F908F907F90E6
:1032B0006F905F904F903F902F900895D601ED91C1
:1032C000FC910084F185E02DA1016D817E81C60114
:1032D0002696CDBFDEBFDF91CF910F91EF90DF90AB
:1032E000CF90BF90AF909F908F907F906F905F90A6
:1032F0004F903F902F900994FC01858181110CC063
:1033000016821782108611861286138614861586F9
:103310001686178681E085838091E3058C7F9481F2
:10332000892B8093E305848181111BC061E084E0D7
:103330000E94F60361E086E00E94F6038091C108D6
:1033400084608093C1088091C00881628093C00826
:1033500090910C2E80910D2E9093C0088093C108FF
:103360000895813039F461E08EE00E94F60361E057
:1033700080E1E2CF823011F761E08EE10E94F60336
:1033800061E080E2D9CF0F9391E090935D2B109292
:1033900056296093A0287093A12840939F282093DA
:1033A0009E28109257291092582900939D28880F23
:1033B00080939C2823E030E044E050E080919F28F7
:1033C000882341F020935E2B30935F2B80919C28C3
:1033D0008E7F0BC080919E28882351F040935E2BF6
:1033E00050935F2B80919C2881608093A70808C030
:1033F00080919F28811104C080919E28882311F319
:10340000809156298823E1F3809156298330B1F2C7
:1034100080919E28882321F0809158290F9108954A
:1034200080915629823031F0853031F0813031F48D
:1034300080E0F4CF81E0F2CF83E0F0CF84E0EECF04
:103440000F9380915E2B90915F2B0197A1F4809157
:103450005D2B811112C001E020E04091E22B61E67A
:103460007BE28091E12B0E94C3191092602B109295
:10347000E22B0F91089580E0F8CF81E0F6CFCF9353
:10348000DF93EA01DC0111968D919C91DC01ED91B5
:10349000FC910280F381E02D0995C817D90721F42A
:1034A0000E94201A91E0811190E0892FDF91CF9145
:1034B0000895E0EAF8E091859066918722E030E097
:1034C00020935E2B30935F2B809394281092932847
:1034D000089581E0809393281092942893E090932C
:1034E000AA089091AB0891FF0EC010929A28F0E0C4
:1034F000E0E009958093992885E090E080935E2B29
:1035000090935F2B089510929B288093982886E0D3
:1035100090E0F4CF0895E0915A2980915929E81755
:1035200030F4F0E0ED5EF74D808190E008958FEF8C
:103530009FEF089590915A29809159292FEF3FEFDD
:10354000981748F4E92FF0E0ED5EF74D208130E068
:103550009F5F90935A29C9010895809159299091AC
:103560005A29891B990B0895CF92DF92EF92FF920F
:103570000F931F93CF93DF937C018A01EB016B01C3
:10358000C40ED51ECC15DD0551F06991D701ED9122
:10359000FC910190F081E02DC7010995F3CFC8019E
:1035A000DF91CF911F910F91FF90EF90DF90CF901F
:1035B00008952091E22B27FF08C021E030E0FC01B4
:1035C0002283338390E080E008958091602BE82F80
:1035D000F0E0EF59F44D60838F5F8093602B809310
:1035E000E22B81E090E008950F93FA0141385105F4
:1035F00014F0E0E8F0E083E198E28093952890935E
:10360000962880915E2B90915F2B019791F4809189
:103610005D2B811110C0022F862F2E2F40E070E00D
:1036200060E00E94C31910925A29809359290F9182
:10363000089580E0F8CF81E0F6CF90E080E0089533
:10364000CF93DF93EC018B81882381F08881809375
:10365000E12B1092602B1092E22B0E94201A91E035
:10366000811190E0892FDF91CF9108950E94FC0491
:1036700081E08B83CE010E94201B982F8111E6CF21
:10368000F1CF0895CF93DF93DC011C96CD91DC91AF
:103690008C819D81892B21F48FEFDF91CF9108954B
:1036A000688170E021E030E041E050E089819A815A
:1036B0000E94F41A813081F789819A81DC01ED91B1
:1036C000FC910284F385E02D0995E7CF0895EF92F0
:1036D000FF920F931F93CF93DF937C01062F87E810
:1036E0009CE20E94A9036FEF87E89CE20E945803C6
:1036F00064E670E080E090E00E949007E70110E04F
:10370000CE018E199F098017910734F4699187E8DB
:103710009CE20E945803F4CFDF91CF911F910F914B
:10372000FF90EF900895DC01ED91FC910488F589FC
:10373000E02D23E030E00994CF92DF92EF92FF92E8
:103740001F93CF93DF93EC0180E2689FF001112477
:10375000E55AF64D9385917161F0842F827449F09A
:1037600080E0DF91CF911F91FF90EF90DF90CF909D
:103770000895142F6A8B8091042890910528A091B8
:103780000628B09107288E879F87A88BB98BC4889D
:10379000D588F12CE12C7601DD24CC24CF8AD88E7B
:1037A000E98EFA8E828D938DB0E0A0E0AC01BD0170
:1037B0004C295D296E297F294F8B588F698F7A8F0D
:1037C00083858871B1F4848D958DA68DB78D8B8B93
:1037D0009C8BAD8BBE8B81E08D831F701C831E8202
:1037E0001F82188619861A861B861C861D8681E014
:1037F000B8CF803109F0B4CF9E012D5E3F4F8B8D45
:103800009C8D0E94F10D882309F4AACF84E0E4CFB7
:10381000CF92DF92EF92FF92FC01C12C32E1D32EC6
:103820003AE7E32EF12C90E04C155D056E057F051F
:1038300040F4F694E794D794C7949F5F9630A1F72D
:1038400097E084E08183892F8095282F217030E0D4
:1038500084E0220F331F8A95E1F79162922B9083C7
:10386000FF90EF90DF90CF900895CF93DF93EC011E
:1038700088819981009711F00E944942188219822B
:103880001C821D821A821B82DF91CF910895FC0158
:10389000808191810C9449420C9449420C94494294
:1038A0002F923F924F925F926F927F928F929F9250
:1038B000AF92BF92CF92DF92EF92FF920F931F933E
:1038C000CF93DF93D82FC92F8B010E940F3924E6A5
:1038D00030E040E050E00E94354149019B01AC01DD
:1038E00060E876E988E990E00E9425416B017C015F
:1038F000F80180829182ED2FFC2F2191822F022EE0
:10390000000C990BC0970A97C0F32E3239F51F01AE
:1039100080E8882E86E9982E88E9A82EB12C9AE0B6
:10392000492E512C612C712CF101C1911F010C2EDB
:10393000000CDD0BE097CA30D10580F4C501B4015D
:10394000A30192010E94354149015A01DE010E9402
:103950007C41C60ED71EE81EF91EE6CFA5E0B0E0FA
:10396000A70196010E947F3F6F5F7F4F8F4F9F4F50
:1039700023E030E040E050E00E943541F80122832E
:103980003383448355831682DF91CF911F910F912A
:10399000FF90EF90DF90CF90BF90AF909F908F906F
:1039A0007F906F905F904F903F902F9008951F935E
:1039B000CF93DF93EC0118811D3209F42196CE01DB
:1039C0000E940F399B01AC01A4E6B0E00E947F3F4A
:1039D000AB01BC01FE012991822F022E000C990B34
:1039E000C0970A97B8F32E3231F58181082E000C6A
:1039F000990BC0978A309105F0F4AAE0A89F900136
:103A0000A99F300D1124C901330FAA0BBB0B480F1E
:103A1000591F6A1F7B1F8281082E000C990BC097CB
:103A20008A30910540F4092E000CAA0BBB0B480FFD
:103A3000591F6A1F7B1F1D3239F470956095509590
:103A400041955F4F6F4F7F4FCB01BA01DF91CF910F
:103A50001F910895FB0101900020E9F73197AF0114
:103A6000461B570BDC01ED91FC910280F381E02DA8
:103A70000994CF93DF93BC018AEE9BE20E942A1D3A
:103A8000EC0161E679EC8AEE9BE20E942A1D8C0F24
:103A90009D1FDF91CF9108958F929F92AF92BF9219
:103AA000CF92DF92EF92FF920F931F93CF93DF930A
:103AB000CDB7DEB7A197CDBFDEBF6C01990FEE0881
:103AC000FF08F7FE48C06DE28AEE9BE20E945803B1
:103AD0008C0122273327A9012C193D094E095F09C2
:103AE00019A2CE0181967C019AE0892E912CA12CFD
:103AF000B12CCA01B901A50194010E943541605D54
:103B0000F70162937F01211531054105510589F7C0
:103B100090E080E0309729F0BF018AEE9BE20E949E
:103B20002A1D080F191F61E679EC8AEE9BE20E94BC
:103B30002A1D800F911FA196CDBFDEBFDF91CF91CF
:103B40001F910F91FF90EF90DF90CF90BF90AF90BB
:103B50009F908F900895A701960119A28E010F5D85
:103B60001F4F8AE0C82ED12CE12CF12CCA01B901DB
:103B7000A70196010E943541605DF80162938F01B3
:103B8000211531054105510589F7309739F0BF01FD
:103B90008AEE9BE20E942A1D8C01C5CF10E000E056
:103BA000C2CF0F931F93CF93DF93EC01FB014481AE
:103BB000558160817181E881F9810280F381E02D76
:103BC00009958C0161E679ECCE010E942A1D800FD7
:103BD000911FDF91CF911F910F9108950F931F9324
:103BE000CF93DF93EC018B0181E090E00E94AD4127
:103BF00088839983F80101900020E9F73197E01B51
:103C0000F10BEA83FB83B8010E94B3431C821D823F
:103C1000DF91CF911F910F9108950F931F93CF9331
:103C2000DF93EC0188819981009759F02A813B81CB
:103C30002617370730F081E0DF91CF911F910F9168
:103C400008958B016F5F7F4F0E94D242009759F019
:103C5000888399830A831B832C813D81232B59F709
:103C6000FC011082E8CF80E0E7CFEF92FF920F9344
:103C70001F93CF93DF936115710541F480E0DF91CD
:103C8000CF911F910F91FF90EF900895411551052D
:103C9000B1F07B01EC010C811D81040F151FB801EF
:103CA0000E940D1E882351F3288139818C819D81CA
:103CB000B701820F931F0E94B3430C831D8381E0E1
:103CC000DECFCF93DF93EC01FB0101900020E9F7F9
:103CD0003197AF01461B570B0E94351E811103C05F
:103CE000CE010E94351CCE01DF91CF910895CF9374
:103CF000DF93EC01FB0144815581608171810E9459
:103D0000351E811103C0CE010E94351CCE01DF910A
:103D1000CF910895FB0144815581608171810C949C
:103D2000351EEF92FF920F931F93CF93DF93EC0119
:103D30007B018A01BA010E940D1E81110BC0CE01C8
:103D40000E94351CCE01DF91CF911F910F91FF9002
:103D5000EF9008950C831D83B701888199810E949B
:103D6000B343F0CFFB0101900020E9F73197AF0199
:103D7000461B570B0C94911E0F931F93CF93DF9309
:103D8000CDB7DEB72997CDBFDEBF8C01862FF801F6
:103D90001082118212821382148215824AE0BE01BF
:103DA0006F5F7F4F90E00E947C39BE016F5F7F4F55
:103DB000C8010E94B21E2996CDBFDEBFDF91CF9110
:103DC0001F910F910895CF93DF93EC01FB018617AC
:103DD000970749F0608171816115710541F0448157
:103DE00055810E94911ECE01DF91CF9108950E94CE
:103DF000351CF9CFFC0110821182128213821482C9
:103E000015820C94E31EFC0110821182128213822F
:103E100014821582FB0101900020E9F73197AF0170
:103E2000461B570B0C94911EEF92FF920F931F931A
:103E3000CF93DF93CDB7DEB7A197CDBFDEBF7C01B7
:103E4000CB01BA01F701108211821282138214820F
:103E5000158242E0420F8E010F5F1F4F0E94F13822
:103E6000009771F0BC01C7010E94B21EA196CDBFA0
:103E7000DEBFDF91CF911F910F91FF90EF900895DA
:103E8000C7010E94351CF2CF0E948F433F924F9290
:103E90005F926F927F928F929F92AF92BF92CF92DA
:103EA000DF92EF92FF920F931F93CF93DF93CDB7E3
:103EB000DEB72B97CDBFDEBF7C01FE013196CE0170
:103EC0000C966F0130E23193E817F907E1F7DA0158
:103ED00030E087E09D91B92E9923C9F19E32D9F443
:103EE0008A30B1F480E02B96CDBFDEBFDF91CF9159
:103EF0001F910F91FF90EF90DF90CF90BF90AF9008
:103F00009F908F907F906F905F904F903F9008951B
:103F100038E08AE0DFCFEAEDF3E04491442321F07A
:103F200031969413FACFDECF8317E0F24FED490FAD
:103F30004E35C0F64FE9490F4A3118F440EEB42E21
:103F4000B90EF601E30FF11DB0823F5FC3CF898147
:103F5000803241F2322E8B01DB015B968D919C9178
:103F60005C97F701838F948F16961D921D921D9278
:103F70001C921997FB011286138614861586F80188
:103F800082859385A485B585438954896589768919
:103F900084179507A607B70708F04DC025E0B6952A
:103FA000A795979587952A95D1F7F82FFF70AF2E93
:103FB000D80115968C91823008F494CFC8010E94E4
:103FC0003D1097FD8FCFF80182859385A485B58537
:103FD0004F96A11DB11D82879387A487B587F0E214
:103FE000AF9EB0011124655A764D6115710509F433
:103FF00079CFDB018C91882341F0853E09F062C0C6
:10400000BB2029F0BB24B394BACFB1100EC0F70186
:10401000A28A8091042890910528A0910628B09149
:10402000072886879787A08BB18BDB018C91811144
:10403000E9CFBB24B394832D8271823109F052CF32
:10404000BB2009F44DC0F701668577858089918989
:1040500041E00E94840C882309F444CFD701529692
:104060008C91B0E28B9FC0011124855A964D009728
:1040700009F438CFFC013A9626E1DF011D922A951A
:10408000E9F72BE0F601DC0101900D922A95E1F7AA
:1040900021E238E2FC01208B318B40E058E046877A
:1040A0005787228B338B208F318F468B578B81E044
:1040B0000E94590C882309F415CF432DD70152963D
:1040C0006C910AC04BE050E0C6010E949443892BDA
:1040D00009F055CF432D6A2DC7010E949C1B03CFC9
:1040E000F8018581823009F4FDCEC8010E94430F9A
:1040F000882309F4F7CED8015B96ED91FC915C978B
:1041000016968D909D90AD90BC901997B2E08B1A49
:104110009108A108B108858504C0880C991CAA1CC7
:10412000BB1C8A95D2F786859785A089B189880EB0
:10413000991EAA1EBB1E848124013501480E511C04
:10414000611C711C84149504A604B70409F1E1E014
:104150004E1A51086108710881E00E94590C8823A9
:1041600009F4C0CEEBE5F9E211928BE59BE28E17E4
:104170009F07D1F7409204285092052860920628A4
:10418000709207288091A32881608093A328DACFBA
:10419000D8015B96ED91FC91258580E092E0A0E04E
:1041A000B0E004C0880F991FAA1FBB1F2A95D2F741
:1041B000F8014389548965897689840F951FA61F64
:1041C000B71F838B948BA58BB68BD70152961C920D
:1041D0008BE599E24FCF0F931F93CF93DF938C0121
:1041E000EB0188E2FB0111928A95E9F74BE050E080
:1041F00064E679ECCE010E94BA431B8681E090E030
:10420000A0E0B0E08C879D87AE87BF87F8018381EF
:104210009481092E000CAA0BBB0B888B998BAA8B5F
:10422000BB8B8DE090E0A0E0B0E08C8B9D8BAE8BE3
:10423000BF8B1CA21DA21EA21FA280E090E0A0E2E4
:10424000B2EC8C8F9D8FAE8FBF8F80E090E0AAEA9A
:10425000B2E4888F998FAA8FBB8F8AE999E9A9E97F
:10426000BEE388A399A3AAA3BBA3DF91CF911F911B
:104270000F9108950F931F93CF93DF938C01EB0160
:1042800088E2FB0111928A95E9F74BE050E06CE679
:1042900079ECCE010E94BA431B8681E090E0A0E059
:1042A000B0E08C879D87AE87BF87F80183819481BA
:1042B000092E000CAA0BBB0B888B998BAA8BBB8B8E
:1042C0008CE090E0A0E0B0E08C8B9D8BAE8BBF8B40
:1042D0001CA21DA21EA21FA21C8E1D8E1E8E1F8E32
:1042E00080E090E0A8ECB2E4888F998FAA8FBB8F12
:1042F00080E090E0A0E0B0E488A399A3AAA3BBA3C8
:10430000DF91CF911F910F9108952F923F924F927D
:104310005F926F927F928F929F92AF92BF92CF9255
:10432000DF92EF92FF920F931F93CF93DF93CDB75E
:10433000DEB72A97CDBFDEBF8C017B016A010E94E8
:10434000C0071B012C018091F2C79091F3C7A09187
:10435000F4C78F839887A987D8011C968D919C916B
:10436000FC012481358123303105C0F41A868A8509
:104370002A96CDBFDEBFDF91CF911F910F91FF90A5
:10438000EF90DF90CF90BF90AF909F908F907F90F5
:104390006F905F904F903F902F90089520812093D1
:1043A000E12B1092602B1092E22B4E01B7E08B0EA6
:1043B000911C43E050E0B4010E943F1A8A87882391
:1043C000A9F2C8010E94421B87FF07C06AE070E0A3
:1043D00080E090E00E949007F4CFF801A484B584B7
:1043E000D50114968D919C911597069708F4BECF30
:1043F0006C9170E021E030E046E050E011968D9144
:104400009C910E94F41A863009F0B0CFFE013196DB
:104410003F01D50111968D919C91DC01ED91FC91AC
:104420000284F385E02D0995F30181933F01E8159E
:10443000F90579F76A817B81762767277627CB0193
:10444000B0E0A0E09C01AD0184E0220F331F441FC7
:10445000551F8A95D1F7BC808B2D90E064E095952F
:1044600087956A95E1F7092E000CAA0BBB0BBC01DE
:10447000CD01622B732B842B952B0E94603E20E094
:1044800030E048EC52E40E94C13E20E030E040E8D9
:1044900055E30E94C13ED80114966D937D938D9390
:1044A0009C9317976B2D6F7070E090E080E0982FD1
:1044B000872F762F66272D81622B982F872F762FB7
:1044C00066272E81622B0E94603E20E030E048E4A7
:1044D00053E40E94C13E20E030E040E855E30E94F2
:1044E000C13E20E030E048E452E40E94CA3FF801B7
:1044F0006083718382839383C114D10481F1F601B7
:10450000349680E2DF011D928A95E9F784E290E01B
:10451000A0E0B0E0F60180839183A283B383D80149
:104520001A968D919C91B0E0A0E084839583A68338
:10453000B7838DE090E0A0E0B0E080879187A2870C
:10454000B387208A318A428A538AF8018081918117
:10455000A281B381F601848B958BA68BB78BE11476
:10456000F10409F404CFF701349680E2DF011D92D3
:104570008A95E9F784E290E0A0E0B0E0F70180835B
:104580009183A283B383D80118968D919C91B0E05A
:10459000A0E084839583A683B7838DE090E0A0E0BC
:1045A000B0E080879187A287B387208A318A428AC8
:1045B000538AF80184819581A681B781F701848BA4
:1045C000958BA68BB78BD3CEAB0170E060E0FC017E
:1045D000858196810E94852181E0089550E040E028
:1045E000FC01858196810E94852181E00895EF92EA
:1045F000FF920F931F93CF93DF93EC017B018A010E
:104600001A821B8288EE93E0A0E0B0E08C839D8349
:10461000AE83BF8383E599EC888399838DE190E035
:104620000E94AD41898F9A8F009779F02DE1F701B3
:10463000DC0101900D922A95E1F74CE050E0B801C1
:10464000CE010C960E94BA43188EDF91CF911F9134
:104650000F91FF90EF9008958F929F92AF92BF922B
:10466000CF92DF92EF92FF920F931F93CF93DF933E
:104670006C01DC0112968D919C91880F991F019617
:104680000E94AD417C01B12CA12C912CD0E0C0E066
:104690005FE1852EF60182819381A816B90608F0A4
:1046A00053C00190F081E02DEA0DFB1D80810E9436
:1046B000E208282F2F71F701EC0FFD1F8E010F5F0D
:1046C0001F4F35E0969587953A95E1F78F718B31BD
:1046D000C9F5911002C08083E8018E010F5F1F4F62
:1046E000F701EC0FFD1F2083D60112968D919C914E
:1046F00013970197A816B906E8F4ED91FC91EA0D1D
:10470000FB1D81810E94E20825E0969587952A95F8
:10471000E1F78F71992493948F3139F4F701E00F09
:10472000F11F80830F5F1F4F912CBFEFAB1ABB0AA5
:10473000E801B0CFF701E00FF11F80828E010E5F1C
:104740001F4FF2CF2083F1CFC483D583CE010E94C7
:10475000AD418C01AE01B7010E94A143E114F10407
:1047600019F0C7010E944942C801DF91CF911F9102
:104770000F91FF90EF90DF90CF90BF90AF909F9000
:104780008F9008950F931F93CF93DF93EC010E94B6
:104790002C238C018C819D81892B19F4CE010E94E0
:1047A0002C236C817D81C8010E940507EC01011555
:1047B000110519F0C8010E944942CE01DF91CF9145
:1047C0001F910F910895CF92DF92EF92FF920F9376
:1047D0001F93CF93DF93CDB7DEB7C958D109CDBFB3
:1047E000DEBF63E679ECCE0182589F4F0E94031F23
:1047F00064E779ECCE0101960E94031F6EE47FE22C
:10480000CE0101960E94771E69E779EC0E94611E35
:10481000BC01CE0182589F4F0E94E31ECE0101963B
:104820000E94471C60910028709101288091022805
:10483000909103281BA21CA21DA21EA21FA218A6B3
:104840002AE0AE014F5F5F4F0E943639BE016F5FB5
:104850007F4FCE0183960E94B21EBE016D5D7F4FD9
:10486000CE0101960E94FA1E69E779ECCE0101960D
:104870000E94611EBC01CE0182589F4F0E948A1E79
:10488000CE0101960E94471CCE0183960E94471CD0
:1048900010929C2E60919D2E70919E2E80919F2E45
:1048A0009091A02E20E432E44FE050E00E94354188
:1048B000622FCE012A3008F081C201960E94BC1EF0
:1048C0006BEE79ECCE0183960E94031FBE016F5FF1
:1048D0007F4FCE0183960E94771E6BE779EC0E9492
:1048E000611EBC01CE0182589F4F0E948A1ECE01DC
:1048F00083960E94471CCE0101960E94471C10928D
:104900009C2E60919D2E70919E2E80919F2E909155
:10491000A02E20E137E240E050E00E943541CA017C
:10492000B90124E630E040E050E00E943541CE017C
:104930006A3008F060C201960E94BC1E6BEE79ECF2
:10494000CE0183960E94031FBE016F5F7F4FCE0191
:1049500083960E94771E6BE779EC0E94611EBC0172
:10496000CE0182589F4F0E948A1ECE0183960E94DC
:10497000471CCE0101960E94471C10929C2E60910C
:104980009D2E70919E2E80919F2E9091A02E24E6B8
:10499000C22ED12CE12CF12CA70196010E943541A9
:1049A000CA01B901A70196010E943541CE016A30C2
:1049B00008F03EC201960E94BC1E6BEE79ECCE015F
:1049C00083960E94031FBE016F5F7F4FCE018396C7
:1049D0000E94771E69E779EC0E94611EBC01CE013E
:1049E00082589F4F0E948A1ECE0183960E94471CC8
:1049F000CE0101960E94471C10926C2E60916F2E82
:104A00007091702E8091712E9091722E0E94603E56
:104A100028E23BE64EE65EE40E9437406B017C01F3
:104A200060916D2E70916E2E90E080E00E94603E4D
:104A30009B01AC01C701B6010E94CB3FAB01BC0199
:104A40008091732E8111705826E0CE0183960E94CA
:104A5000141FBE016D5D7F4FCE0101960E94FA1EAC
:104A600069E779ECCE0101960E94611EBC01CE017E
:104A700082589F4F0E948A1ECE0101960E94471CB9
:104A8000CE0183960E94471C10926C2E6091762E68
:104A90007091772E8091782E9091792E0E94603EB1
:104AA00028E23BE64EE65EE40E9437406B017C0163
:104AB0006091742E7091752E90E080E00E94603EAF
:104AC0009B01AC01C701B6010E94CB3FAB01BC0109
:104AD00080917A2E8111705826E0CE0183960E9433
:104AE000141FBE016D5D7F4FCE0101960E94FA1E1C
:104AF00069E779ECCE0101960E94611EBC01CE01EE
:104B000082589F4F0E948A1ECE0101960E94471C28
:104B1000CE0183960E94471C1092C62E6091CB2E28
:104B20007091CC2E8091CD2E9091CE2E0E94623E1F
:104B300020E030E048EC52E40E943740AB01BC0179
:104B400020E0CE0183960E94141FBE016D5D7F4F51
:104B5000CE0101960E94FA1E69E779ECCE0101961A
:104B60000E94611EBC01CE0182589F4F0E948A1E86
:104B7000CE0101960E94471CCE0183960E94471CDD
:104B80001092AA2E6091AF2E7091B02E8091B12E0E
:104B90009091B22E0E94623E21EA32EB43E05FE345
:104BA0000E94C13E20E030E048EC52E40E943740D1
:104BB000AB01BC0122E0CE0183960E94141FBE010E
:104BC0006D5D7F4FCE0101960E94FA1E69E779EC78
:104BD000CE0101960E94611EBC01CE0182589F4FFA
:104BE0000E948A1ECE0101960E94471CCE01839628
:104BF0000E94471C1092B82E6091BD2E7091BE2E5F
:104C00008091BF2E9091C02E0E94623E20E030E045
:104C100048EC52E40E943740AB01BC0122E0CE01D7
:104C200083960E94141FBE016D5D7F4FCE010196D9
:104C30000E94FA1E69E779ECCE0101960E94611E7E
:104C4000BC01CE0182589F4F0E948A1ECE01019660
:104C50000E94471CCE0183960E94471C40910A295E
:104C600050910B2960910C2970910D2922E0CE0101
:104C700083960E94141FBE016D5D7F4FCE01019689
:104C80000E94FA1E69E779ECCE0101960E94611E2E
:104C9000BC01CE0182589F4F0E948A1ECE01019610
:104CA0000E94471CCE0183960E94471C40912229F6
:104CB00050912329609124297091252921E0CE016A
:104CC00083960E94141FBE016D5D7F4FCE01019639
:104CD0000E94FA1E69E779ECCE0101960E94611EDE
:104CE000BC01CE0182589F4F0E948A1ECE010196C0
:104CF0000E94471CCE0183960E94471C1092D42E1E
:104D00006091D92E7091DA2E8091DB2E9091DC2E5D
:104D10001BA21CA21DA21EA21FA218A62AE0AE0161
:104D20004F5F5F4F0E945A39BE016F5F7F4FCE01C8
:104D300083960E94B21EBE016D5D7F4FCE018258E8
:104D40009F4F0E948A1ECE0183960E94471CC25824
:104D5000DF4FA881B981CE57D040FD0101900020DE
:104D6000E9F73197BF016A1B7B0BAD014C5F5F4FC9
:104D70008FEF9FEF9A012A1B3B0B2617370708F08E
:104D800074C0FA012191AF019227092E0294202DBF
:104D90002F702927392F3025330F307E2327302DD0
:104DA0003927307F3695092E000C331F969596953E
:104DB00096959F7193279827822FDCCF83960E9428
:104DC000BC1EBE016D5D7F4FCE0101960E94FA1E92
:104DD0006BE779ECCE0101960E94611EBC01CE0109
:104DE00082589F4F0E948A1ECE0101960E94471C46
:104DF000CE01839682CD83960E94BC1EBE016D5D5E
:104E00007F4FCE0101960E94FA1E6BE779ECCE012E
:104E100001960E94611EBC01CE0182589F4F0E94E4
:104E20008A1ECE0101960E94471CCE018396A3CD17
:104E300083960E94BC1EBE016D5D7F4FCE01019620
:104E40000E94FA1E69E779ECCE0101960E94611E6C
:104E5000BC01CE0182589F4F0E948A1ECE0101964E
:104E60000E94471CCE018396C5CD9F938F938DE7FB
:104E700099EC9F938F938E010C571F4F1F930F93A5
:104E80000E94C943B801CE0101960E94031FBE01D2
:104E90006F5F7F4FCE0182589F4F0E948A1ECE01C6
:104EA00001960E94471C83E899EC0E94391D0E94DC
:104EB000570668EE73E080E090E00E949007BE0124
:104EC00062587F4F8AEE9BE20E94D11D80911C2F79
:104ED0000F900F900F900F900F900F90823009F06D
:104EE000FAC0C258DF4F68817981CE57D040CE01D9
:104EF00001960E94EE1DCE0101960E94C223898177
:104F00009A81009711F00E94494280911C2F8230B3
:104F100009F0F3C061E679ECCE0101960E94EE1D26
:104F2000CE0101960E94C22389819A81009711F0D7
:104F30000E94494281EA99EC0E94391DBE016258E3
:104F40007F4FCE0188589F4F0E94FA1E1B821C8201
:104F500009E119EC09831A831E82CE0101960E9491
:104F60005B0EBE016F5F7F4FCE01805C9F4F0E9442
:104F70001D081DA21EA20BA31CA318A626968FAD6A
:104F800026978111C4C0A1961EAE1FAEA19788EED0
:104F900093E0A0E0B0E0A5968CAF9DAFAEAFBFAF01
:104FA000A59783E599EC6F968EAF9FAF6F97E896C4
:104FB0001EAE1FAEE897AA961FAEAA97A1968EAD19
:104FC0009FADA1978093562F9093572FA5968CADA8
:104FD0009DADAEADBFADA5978093582F9093592F3F
:104FE000A0935A2FB0935B2FA9968CAD9DADAEAD1B
:104FF000BFADA99780935C2F90935D2FA0935E2FF8
:10500000B0935F2FADE5B0E0AC0FBD1F1C96E0E69E
:10501000FFE28D9181938FE2ED36F807D1F7E896A4
:10502000EEADFFADE897E0936D2FF0936E2F3097C4
:1050300009F499C08581882309F495C06EEA79EC5A
:105040008AEE9BE20E942A1DBE0168587F4F84E5CC
:105050009FE20E94D11D80916D2F90916E2F00973D
:1050600061F00E942F1280916D2F90916E2F0E94FF
:10507000494210926D2F10926E2F8AEC99EC0E948B
:10508000391DCE0188589F4F0E94471C80910028EF
:1050900090910128A0910228B09103280196A11DAA
:1050A000B11D8093002890930128A0930228B0930B
:1050B0000328CE0182589F4F0E94471CC757DF4FDD
:1050C000CDBFDEBFDF91CF911F910F91FF90EF9089
:1050D000DF90CF900895823008F017CFCE57DF4F82
:1050E00068817981C258D040C258DF4F8881998148
:1050F000CE57D0400E94050708CF823008F01ACF63
:1051000062E070E081E699EC0E94050713CF27E189
:105110004EED59ECBE01605C7F4FCE0183960E943C
:10512000461F882309F42FCFCE01805C9F4F0E9439
:105130002F124EA95FA968AD79ADCE0183960E946A
:10514000AF0EBE016D5D7F4FCE0101960E941D081E
:105150004EED59ECBE016F5F7F4FCE01835A9F4FDA
:105160000E94F7222BCF80ED99EC89CF1F920F92EE
:105170000FB60F9211242F933F934F935F936F932A
:105180007F938F939F93AF93BF93EF93FF938AEE99
:105190009BE20E941303FF91EF91BF91AF919F910A
:1051A0008F917F916F915F914F913F912F910F90D0
:1051B0000FBE0F901F9018951F920F920FB60F926F
:1051C00011242F933F934F935F936F937F938F930C
:1051D0009F93AF93BF93EF93FF938AEE9BE20E945E
:1051E0005802FF91EF91BF91AF919F918F917F9165
:1051F0006F915F914F913F912F910F900FBE0F9044
:105200001F9018951F920F920FB60F9211242F9393
:105210003F934F935F936F937F938F939F93AF933E
:10522000BF93EF93FF9387E89CE20E941303FF91E3
:10523000EF91BF91AF919F918F917F916F915F910E
:105240004F913F912F910F900FBE0F901F90189587
:105250001F920F920FB60F9211242F933F934F93EB
:105260005F936F937F938F939F93AF93BF93EF93CE
:10527000FF9387E89CE20E945802FF91EF91BF9153
:10528000AF919F918F917F916F915F914F913F91DE
:105290002F910F900FBE0F901F9018951F920F9295
:1052A0000FB60F9211242F933F934F935F936F93F9
:1052B0007F938F939F93AF93BF93EF93FF9384E27A
:1052C0009DE20E941303FF91EF91BF91AF919F91D7
:1052D0008F917F916F915F914F913F912F910F909F
:1052E0000FBE0F901F9018951F920F920FB60F923E
:1052F00011242F933F934F935F936F937F938F93DB
:105300009F93AF93BF93EF93FF9384E29DE20E943C
:105310005802FF91EF91BF91AF919F918F917F9133
:105320006F915F914F913F912F910F900FBE0F9012
:105330001F9018951F920F920FB60F9211248F9302
:105340009F93AF93BF93EF93FF938091E32B909143
:10535000E42BA091E52BB091E62B892B8A2B8B2B8C
:10536000A9F1E091E82BF091E92B8091E72B808364
:105370008091E32B9091E42BA091E52BB091E62B4B
:10538000181619061A061B069CF48091E32B9091BF
:10539000E42BA091E52BB091E62B0197A109B1096F
:1053A0008093E32B9093E42BA093E52BB093E62B13
:1053B00081E08093960AFF91EF91BF91AF919F9109
:1053C0008F910F900FBE0F901F9018958091E32B37
:1053D0009091E42BA091E52BB091E62B892B8A2BA1
:1053E0008B2B31F71092950A1092900AE1CF1F9201
:1053F0000F920FB60F9211248F939F93AF93BF9389
:105400008091062990910729A0910829B091092936
:105410000196A11DB11D8093062990930729A093A1
:105420000829B093092981E08093A60ABF91AF9122
:105430009F918F910F900FBE0F901F9018951F9204
:105440000F920FB60F9211242F933F934F935F93B8
:105450006F937F938F939F93AF93BF93EF93FF933C
:1054600085E00E94CC07FF91EF91BF91AF919F9192
:105470008F917F916F915F914F913F912F910F90FD
:105480000FBE0F901F9018951F920F920FB60F929C
:1054900011242F933F934F935F936F937F938F9339
:1054A0009F93AF93BF93EF93FF9384E00E94CC0749
:1054B000FF91EF91BF91AF919F918F917F916F91EC
:1054C0005F914F913F912F910F900FBE0F901F90C2
:1054D00018951F920F920FB60F9211242F933F939E
:1054E0004F935F936F937F938F939F93AF93BF93EC
:1054F000EF93FF9383E00E94CC07FF91EF91BF9160
:10550000AF919F918F917F916F915F914F913F915B
:105510002F910F900FBE0F901F9018951F920F9212
:105520000FB60F9211242F933F934F935F936F9376
:105530007F938F939F93AF93BF93EF93FF9382E0FB
:105540000E94CC07FF91EF91BF91AF919F918F91F6
:105550007F916F915F914F913F912F910F900FBE6F
:105560000F901F9018951F920F920FB60F92112453
:105570002F933F934F935F936F937F938F939F935B
:10558000AF93BF93EF93FF9381E00E94CC07FF910D
:10559000EF91BF91AF919F918F917F916F915F91AB
:1055A0004F913F912F910F900FBE0F901F90189524
:1055B0001F920F920FB60F9211242F933F934F9388
:1055C0005F936F937F938F939F93AF93BF93EF936B
:1055D000FF9380E00E94CC07FF91EF91BF91AF91C4
:1055E0009F918F917F916F915F914F913F912F91FB
:1055F0000F900FBE0F901F9018951F920F920FB62D
:105600000F9211242F933F934F935F936F937F9348
:105610008F939F93AF93BF93CF93EF93FF93C091DB
:10562000AB08C2FF0AC010929B2810929A281092D1
:10563000992884E00E94591A12C0C6FF2DC080919B
:105640009828813041F480919B2890E0F0E0E0E0E0
:10565000099510929828C0FF14C00E94691AFF9102
:10566000EF91CF91BF91AF919F918F917F916F916A
:105670005F914F913F912F910F900FBE0F901F9010
:10568000189580E48093AB0881E00E94591A8091BC
:10569000AB0885FFE4CFE1CFC7FF50C0C3FF08C010
:1056A00010929B2810929A281092992883E0C2CFDA
:1056B0008091A90880668093A9088091AB0881FF3A
:1056C00026C080919A28882349F08091AB0884FFF6
:1056D00005C082E08093AA0881E0ACCF90919A281F
:1056E00080919928981778F4E0919A28F0E08081C9
:1056F0008093AD0880919A288F5F80939A2883E0E9
:105700008093AA08ACCF82E08093AA0893CF9091AF
:105710009B2880919728981760F48091AD08E091BC
:105720009B28F0E0808380919B288F5F80939B284B
:10573000E6CF86E08093AA0882E07CCF85E07ACF2E
:105740001F920F920FB60F9211242F933F938F93B6
:105750009F93EF93FF938091A508982F9C70E1F0A1
:105760008091A50894E082FF93E09093562980935E
:10577000A50881E090E080935E2B90935F2B1092C0
:105780005D2BFF91EF919F918F913F912F910F9002
:105790000FBE0F901F90189586FF4EC020919F2836
:1057A00090919E288091A50884FF15C080919D2826
:1057B000882379F083E08093A40885E080935629BC
:1057C00010925D2B81E090E080935E2B90935F2B95
:1057D000D8CF81E0F0CF80915729821790F4E091E3
:1057E00057298091A0289091A128E80FF92FF11D49
:1057F00080818093A808809157298F5F80935729D3
:10580000C0CF80915829891760F484E090E080939C
:105810005E2B90935F2B80919C2881608093A708DA
:10582000B0CF80919D28882329F083E08093A4083D
:1058300081E0C4CF81E0FACF87FF40C09091582922
:1058400080919E289817D8F48091A808E091582953
:105850002091952830919628E20FF32FF11D808337
:10586000809158298F5F8093582990919E2880912C
:1058700058298917D8F482E08093A40882CF8091B8
:105880009D28882389F087E08093A40882E0809394
:10589000562910925D2B81E090E080935E2B9093CF
:1058A0005F2B10929E286DCF85E0EECF80919D28D2
:1058B000882311F087E0BACF85E0B8CF86E07ECFAD
:1058C0008F929F92AF92BF92CF92DF92EF92FF9210
:1058D000CF9323EC3DE220935B2B30935C2B88230A
:1058E00009F46DC040E060E070E0CB010E94840CE0
:1058F00081110BC080E0CF91FF90EF90DF90CF90AF
:10590000BF90AF909F908F9008958091192B8F77C3
:1059100089F78091252B9091262BA091272BB09170
:10592000282B84369105A105B10520F3C090212BC9
:10593000D090222BE090232BF090242BC114D10483
:10594000E104F104B9F240E0C701B6010E94840C01
:10595000882381F280916629909167298115924070
:1059600049F6A0916B29AA2329F2609169297091C7
:105970006A296115710509F4BDCF20916829222398
:1059800009F4B8CFA093E12D2093D32D90E080E0CF
:1059900030E0E1E0F0E0C82FAF01082E02C0440F74
:1059A000551F0A94E2F72417350769F041E0480FC4
:1059B00001968930910579F74093DC2D9BCFC12C5E
:1059C000D12C7601C0CF8093DC2D209171293091AC
:1059D000722950E040E02115310541F420917F29E2
:1059E0003091802940918129509182292093D42D92
:1059F0003093D52D4093D62D5093D72D4601570186
:105A0000860E971EA11CB11C8092E22D9092E32D70
:105A1000A092E42DB092E52DE0916C29F0916D29D2
:105A2000E093E72DF093E82DB0E00E947F3FDC018A
:105A3000CB01880D991DAA1DBB1D8093E92D909364
:105A4000EA2DA093EB2DB093EC2D25E0EE0FFF1F78
:105A50002A95E1F7E150FE4FEF2FFF27E6958E0FD5
:105A60009F1FA11DB11D8093DD2D9093DE2DA0936E
:105A7000DF2DB093E02D80906E2990906F29B12C8E
:105A8000A12C8114910441F480907B2990907C2971
:105A9000A0907D29B0907E29C81AD90AEA0AFB0A8B
:105AA000C80CD91CEA1CFB1C04C0F694E794D794DC
:105AB000C794CA95D2F7C092D82DD092D92DE09232
:105AC000DA2DF092DB2D85EFC8168FE0D806E104C1
:105AD000F10428F48CE08093E62D81E00CCF80E186
